:020000040000FA
:100000000C945D000C947A000C947A000C947A00A5
:100010000C947A000C947A000C947A000C947A0078
:100020000C947A000C947A000C947A000C947A0068
:100030000C947A000C947A000C947A000C947A0058
:100040000C9405010C947A000C947A000C947A00BC
:100050000C947A000C947A000C947A000C947A0038
:100060000C947A000C947A00000000002400270011
:100070002A0000000000250028002B0004040404CE
:100080000404040402020202020203030303030342
:10009000010204081020408001020408102001021F
:1000A00004081020000000080002010000030407FB
:1000B0000000000000000000050311241FBECFEF68
:1000C000D8E0DEBFCDBF21E0A0E0B1E001C01D92CD
:1000D000A132B207E1F710E0CDE5D0E004C02197EE
:1000E000FE010E941003CC35D107C9F70E944F01D1
:1000F0000C9416030C94000090E0FC01EC55FF4FAB
:100100002491FC01E057FF4F3491FC01E458FF4F6C
:10011000E491EE23C9F0222339F0233001F1A8F451
:10012000213019F1223029F1F0E0EE0FFF1FEE58D7
:10013000FF4FA591B4918FB7F894EC91611126C04F
:1001400030953E233C938FBF08952730A9F0283087
:10015000C9F0243049F7809180008F7D03C08091E1
:1001600080008F7780938000DFCF84B58F7784BD48
:10017000DBCF84B58F7DFBCF8091B0008F778093EC
:10018000B000D2CF8091B0008F7DF9CF3E2BDACF77
:10019000CF93DF9390E0FC01E057FF4F2491845808
:1001A0009F4FFC0184918823D1F090E0880F991F24
:1001B000FC01E859FF4FA591B491FC01EE58FF4FA7
:1001C000C591D49161110EC09FB7F8948C91E22F24
:1001D000E0958E238C932881E223E8839FBFDF91F3
:1001E000CF9108958FB7F894EC91E22BEC938FBFE9
:1001F000F6CF2FB7F89460911D0170911E01809188
:100200001F01909120012FBF08951F920F920FB6EA
:100210000F9211242F933F938F939F93AF93BF938C
:1002200080911D0190911E01A0911F01B0912001AC
:1002300030911C0123E0230F2D3758F50196A11DA5
:10024000B11D20931C0180931D0190931E01A0936A
:100250001F01B09320018091180190911901A09184
:100260001A01B0911B010196A11DB11D80931801C7
:1002700090931901A0931A01B0931B01BF91AF9104
:100280009F918F913F912F910F900FBE0F901F90D4
:10029000189526E8230F0296A11DB11DD2CF7894A0
:1002A00084B5826084BD84B5816084BD85B582607B
:1002B00085BD85B5816085BD80916E00816080932C
:1002C0006E00109281008091810082608093810095
:1002D00080918100816080938100809180008160A5
:1002E000809380008091B10084608093B100809100
:1002F000B00081608093B00080917A008460809328
:100300007A0080917A00826080937A0080917A00EE
:10031000816080937A0080917A00806880937A006F
:100320001092C10061E08DE00E94C80061E08BE0A6
:100330000E94C80060E08EE00E94C80060E089E092
:100340000E94C80060E08DE00E947C0061E08BE0CC
:100350000E94C80060E08BE00E947C0080E4882E50
:100360009FEAC92E90E0D92E08EC10E028EC922EDE
:1003700030E0E32E30E0F32E45E0A42EB12C0E94B5
:10038000F9004090040150900501609006017090C2
:1003900007016419750986099709603E734984400D
:1003A000910508F069C00E94F90060930001709304
:1003B0000101809302019093030180927C0080915F
:1003C0007A00806480937A0080917A0086FDFCCF69
:1003D0008091780090917900893592400CF473C037
:1003E00010920D0110920C010E94F900409014012E
:1003F00050901501609016017090170164197509ED
:1004000086099709683E73408105910508F4D7C0B5
:100410000E94F900609314017093150180931601F6
:10042000909317018091120190911301892B09F487
:1004300098C080910E0190910F01A0911001B09190
:100440001101892B8A2B8B2B09F08BC061E08BE08B
:100450000E94C800F6018491833009F4BCC008F002
:1004600069C0813009F479C0823009F4AFC061E01D
:100470008BE00E947C0075C061E08DE00E947C00F2
:100480000E94F9004090000150900101609002012B
:100490007090030164197509860997096A3F71050F
:1004A0008105910508F489CF0E94F9006093040149
:1004B00070930501809306019093070160E08DE041
:1004C0000E947C007ACF8091120190911301892BB8
:1004D00059F00E94F900609308017093090180931C
:1004E0000A0190930B0180CF0E94F900409008010F
:1004F0005090090160900A0170900B016419750910
:100500008609970961157D4D8D46910508F46CCFDC
:1005100080910C0190910D01833091050CF064CF16
:10052000B0921301A0921201019690930D01809355
:100530000C015ACF873009F458C0883009F45DC0E7
:10054000843009F094CF8091800080628093800095
:1005500010938B0000938A0004C084B5806884BD2A
:1005600097BCC0911201D09113012097A1F4809102
:100570000E0190910F01A0911001B0911101892BF2
:100580008A2B8B2B41F061E08BE00E94C80060E079
:100590008BE00E947C00CE010D2E000CAA0BBB0B41
:1005A00080930E0190930F01A0931001B09311015D
:1005B000209729F02197D0931301C0931201E114E1
:1005C000F10409F4DCCE0E940000D9CE84B580622B
:1005D00084BD98BCC6CF80918000806880938000E5
:1005E0001093890000938800BCCF8091B000806890
:1005F0008093B0009092B300B4CF8091B00080623D
:100600008093B0009092B400ACCF0E94F900609348
:1006100008017093090180930A0190930B010895DA
:10062000EE0FFF1F0590F491E02D0994F894FFCF91
:107E0000112484B714BE81FFF0D085E080938100F7
:107E100082E08093C00088E18093C10086E0809377
:107E2000C20080E18093C4008EE0C9D0259A86E02C
:107E300020E33CEF91E0309385002093840096BBD3
:107E4000B09BFECF1D9AA8958150A9F7CC24DD24C4
:107E500088248394B5E0AB2EA1E19A2EF3E0BF2EE7
:107E6000A2D0813461F49FD0082FAFD0023811F036
:107E7000013811F484E001C083E08DD089C08234E0
:107E800011F484E103C0853419F485E0A6D080C0E4
:107E9000853579F488D0E82EFF2485D0082F10E0AE
:107EA000102F00270E291F29000F111F8ED06801E7
:107EB0006FC0863521F484E090D080E0DECF843638
:107EC00009F040C070D06FD0082F6DD080E0C81688
:107ED00080E7D80618F4F601B7BEE895C0E0D1E017
:107EE00062D089930C17E1F7F0E0CF16F0E7DF06D8
:107EF00018F0F601B7BEE89568D007B600FCFDCFD4
:107F0000A601A0E0B1E02C9130E011968C91119780
:107F100090E0982F8827822B932B1296FA010C0160
:107F200087BEE89511244E5F5F4FF1E0A038BF0790
:107F300051F7F601A7BEE89507B600FCFDCF97BE46
:107F4000E89526C08437B1F42ED02DD0F82E2BD052
:107F50003CD0F601EF2C8F010F5F1F4F84911BD097
:107F6000EA94F801C1F70894C11CD11CFA94CF0C13
:107F7000D11C0EC0853739F428D08EE10CD085E9AC
:107F80000AD08FE07ACF813511F488E018D01DD067
:107F900080E101D065CF982F8091C00085FFFCCF94
:107FA0009093C60008958091C00087FFFCCF809118
:107FB000C00084FD01C0A8958091C6000895E0E648
:107FC000F0E098E1908380830895EDDF803219F02E
:107FD00088E0F5DFFFCF84E1DECF1F93182FE3DFCA
:107FE0001150E9F7F2DF1F91089580E0E8DFEE27F6
:047FF000FF270994CA
:027FFE00040479
:00000001FF
